{
  "contractName": "MyToken",
  "abi": [
    {
      "inputs": [
        {
          "internalType": "uint256",
          "name": "initialSupply",
          "type": "uint256"
        }
      ],
      "stateMutability": "nonpayable",
      "type": "constructor"
    },
    {
      "inputs": [
        {
          "internalType": "address",
          "name": "",
          "type": "address"
        }
      ],
      "name": "balanceOf",
      "outputs": [
        {
          "internalType": "uint256",
          "name": "",
          "type": "uint256"
        }
      ],
      "stateMutability": "view",
      "type": "function",
      "constant": true
    },
    {
      "inputs": [
        {
          "internalType": "address",
          "name": "_to",
          "type": "address"
        },
        {
          "internalType": "uint256",
          "name": "_value",
          "type": "uint256"
        }
      ],
      "name": "transfer",
      "outputs": [],
      "stateMutability": "payable",
      "type": "function",
      "payable": true
    },
    {
      "inputs": [],
      "name": "getBalance",
      "outputs": [
        {
          "internalType": "uint256",
          "name": "",
          "type": "uint256"
        }
      ],
      "stateMutability": "view",
      "type": "function",
      "constant": true
    }
  ],
  "bytecode": "0x608060405234801561001057600080fd5b506040516105b93803806105b9833981810160405281019061003291906100b6565b806000803373ffffffffffffffffffffffffffffffffffffffff1673ffffffffffffffffffffffffffffffffffffffff16815260200190815260200160002081905550506100e3565b600080fd5b6000819050919050565b61009381610080565b811461009e57600080fd5b50565b6000815190506100b08161008a565b92915050565b6000602082840312156100cc576100cb61007b565b5b60006100da848285016100a1565b91505092915050565b6104c7806100f26000396000f3fe6080604052600436106100345760003560e01c806312065fe01461003957806370a0823114610064578063a9059cbb146100a1575b600080fd5b34801561004557600080fd5b5061004e6100bd565b60405161005b91906102c1565b60405180910390f35b34801561007057600080fd5b5061008b6004803603810190610086919061033f565b610103565b60405161009891906102c1565b60405180910390f35b6100bb60048036038101906100b69190610398565b61011b565b005b60008060003373ffffffffffffffffffffffffffffffffffffffff1673ffffffffffffffffffffffffffffffffffffffff16815260200190815260200160002054905090565b60006020528060005260406000206000915090505481565b806000803373ffffffffffffffffffffffffffffffffffffffff1673ffffffffffffffffffffffffffffffffffffffff16815260200190815260200160002054101561016657600080fd5b6000808373ffffffffffffffffffffffffffffffffffffffff1673ffffffffffffffffffffffffffffffffffffffff16815260200190815260200160002054816000808573ffffffffffffffffffffffffffffffffffffffff1673ffffffffffffffffffffffffffffffffffffffff168152602001908152602001600020546101ef9190610407565b10156101fa57600080fd5b806000803373ffffffffffffffffffffffffffffffffffffffff1673ffffffffffffffffffffffffffffffffffffffff1681526020019081526020016000206000828254610248919061045d565b92505081905550806000808473ffffffffffffffffffffffffffffffffffffffff1673ffffffffffffffffffffffffffffffffffffffff168152602001908152602001600020600082825461029d9190610407565b925050819055505050565b6000819050919050565b6102bb816102a8565b82525050565b60006020820190506102d660008301846102b2565b92915050565b600080fd5b600073ffffffffffffffffffffffffffffffffffffffff82169050919050565b600061030c826102e1565b9050919050565b61031c81610301565b811461032757600080fd5b50565b60008135905061033981610313565b92915050565b600060208284031215610355576103546102dc565b5b60006103638482850161032a565b91505092915050565b610375816102a8565b811461038057600080fd5b50565b6000813590506103928161036c565b92915050565b600080604083850312156103af576103ae6102dc565b5b60006103bd8582860161032a565b92505060206103ce85828601610383565b9150509250929050565b7f4e487b7100000000000000000000000000000000000000000000000000000000600052601160045260246000fd5b6000610412826102a8565b915061041d836102a8565b9250827fffffffffffffffffffffffffffffffffffffffffffffffffffffffffffffffff03821115610452576104516103d8565b5b828201905092915050565b6000610468826102a8565b9150610473836102a8565b925082821015610486576104856103d8565b5b82820390509291505056fea26469706673582212202d0b2fbc1a7b1489d806cdf529d5c2f93c3b3a22975077f806bbfdb4bbafd53b64736f6c634300080c0033",
  "immutableReferences": {},
  "source": "// SPDX-License-Identifier: MIT\r\npragma solidity >=0.5.0 <0.9.0;\r\n\r\ncontract MyToken {\r\n    /* This creates an array with all balances */\r\n    mapping(address => uint256) public balanceOf;\r\n\r\n    /* Initializes contract with initial supply tokens to the creator of the contract */\r\n    constructor(uint256 initialSupply) {\r\n        balanceOf[msg.sender] = initialSupply; // Give the creator all initial tokens\r\n    }\r\n\r\n    /* Send coins */\r\n    function transfer(address _to, uint256 _value) public payable {\r\n        require(balanceOf[msg.sender] >= _value); // Check if the sender has enough\r\n        require(balanceOf[_to] + _value >= balanceOf[_to]); // Check for overflows\r\n        balanceOf[msg.sender] -= _value; // Subtract from the sender\r\n        balanceOf[_to] += _value; // Add the same to the recipient\r\n    }\r\n\r\n    /* Get balance */\r\n    function getBalance() public view returns (uint256) {\r\n        return balanceOf[msg.sender];\r\n    }\r\n}\r\n",
  "sourcePath": "D:\\DAppGit\\MyToken\\contracts\\MyToken.sol",
  "compiler": {
    "name": "solc",
    "version": "0.8.12+commit.f00d7308.Emscripten.clang"
  },
  "schemaVersion": "3.4.6",
  "updatedAt": "2022-10-26T14:15:00.645Z",
  "networkType": "ethereum",
  "devdoc": {
    "kind": "dev",
    "methods": {},
    "version": 1
  },
  "userdoc": {
    "kind": "user",
    "methods": {},
    "version": 1
  }
}